:100000000C945D000C9485000C9485000C94850084
:100010000C9485000C9485000C9485000C9485004C
:100020000C9485000C9485000C9485000C9485003C
:100030000C9485000C9485000C9485000C9485002C
:100040000C94A2050C9485000C9485000C948500FA
:100050000C9485000C9485000C9485000C9485000C
:100060000C94EC050C9485000000000800020100CF
:100070000003040700000000000000000000000072
:10008000250028002B0000000000240027002A0083
:10009000040404040404040402020202020203032E
:1000A0000303030301020408102040800102040836
:1000B00010200102040810200B0711241FBECFEFEF
:1000C000D8E0DEBFCDBF22E0A8E6B1E001C01D92BE
:1000D000A535B207E1F711E0A0E0B1E0ECE9F5E108
:1000E00002C005900D92A836B107D9F710E0CDE512
:1000F000D0E004C02197FE010E94A109CC35D107B0
:10010000C9F70E9439070C94CC0A0C94000090E0C7
:10011000FC01EC55FF4F249180579F4FFC018491C7
:10012000882399F090E0880F991FFC01EA57FF4F50
:10013000A591B491FC01E458FF4F859194918FB73C
:10014000F894EC91E22BEC938FBF089508950895F5
:1001500090E0FC01E859FF4F2491FC01EC55FF4F62
:100160003491FC01E057FF4FE491EE23C9F02223C4
:1001700039F0233001F1A8F4213019F1223029F1AE
:10018000F0E0EE0FFF1FE458FF4FA591B4918FB739
:10019000F894EC91611126C030953E233C938FBFBB
:1001A00008952730A9F02830C9F0243049F780910C
:1001B00080008F7D03C0809180008F7780938000C6
:1001C000DFCF84B58F7784BDDBCF84B58F7DFBCF48
:1001D0008091B0008F778093B000D2CF8091B00033
:1001E0008F7DF9CF3E2BDACF3FB7F8948091D301C2
:1001F0009091D401A091D501B091D60126B5A89BCC
:1002000005C02F3F19F00196A11DB11D3FBFBA2FA8
:10021000A92F982F8827BC01CD01620F711D811D68
:10022000911D42E0660F771F881F991F4A95D1F7ED
:1002300008958F929F92AF92BF92CF92DF92EF92EA
:10024000FF924B015C010E94F4006B017C010E9453
:10025000F4006C197D098E099F09683E7340810581
:100260009105A8F321E0821A9108A108B10888EE4F
:10027000C80E83E0D81EE11CF11C81149104A10476
:10028000B10429F7FF90EF90DF90CF90BF90AF902F
:100290009F908F900895AF92BF92CF92DF92EF928E
:1002A000FF920F931F93CF93DF936C017B018B0120
:1002B000040F151FEB015E01AE18BF08C017D10770
:1002C00059F06991D601ED91FC910190F081E02DFA
:1002D000C6010995892B79F7C501DF91CF911F914F
:1002E0000F91FF90EF90DF90CF90BF90AF90089567
:1002F000089520918901260F3327331F21323105BC
:10030000ECF420910302FC0190E080E0243069F0DD
:1003100082E00895A09189012191AC0147595E4F77
:10032000A40FB52FB11D2C930196861798F38091D9
:100330008901680F6093890180E0089581E0089544
:100340001092030281E0809302021092DD0161E0CD
:1003500082E10E94A80061E083E10E94A800E9EB2D
:10036000F0E080818E7F808380818D7F808388E430
:100370008093B80085E48093BC0008951092DC015E
:100380001092DB0110920A0210922C020E94A0012E
:1003900086EA90E09093DA018093D90187EA90E0B1
:1003A0009093D8018093D7010895CF93DF9391E084
:1003B000909368018823B9F0C091B800D091BA0039
:1003C0008091BC008A7B8093BC0060E082E10E9447
:1003D000A80060E083E10E94A8000E94A001D093E1
:1003E000BA00C093B800DF91CF9108958F929F9289
:1003F000AF92BF92CF92DF92EF92FF920F931F9333
:10040000CF93DF93D0912C02D13208F0D7C0182FB0
:10041000C0912B020E94F4006B017C0180910302C9
:1004200081116BC082E080930302109302028FEF70
:100430008093010210920002D093FF01ABE0B2E082
:10044000EFEDF1E080E0D81391C01092DE018091D1
:10045000DE01CC0FC82BC093DE018091DD0181301D
:1004600009F088C01092DD010E94F4006B017C014C
:100470008091DE018093BB0080910502909106027D
:10048000A0910702B0910802892B8A2B8B2BA1F037
:100490000E94F400009105021091060220910702CB
:1004A000309108026C197D098E099F0906171707FC
:1004B0002807390708F442C08091BC0083FDD8CFDB
:1004C00085EC8093BC000E94F4006B017C0180915C
:1004D0000302823009F450C0809101028F3F09F479
:1004E0006FC080910102803209F46CC080910102DA
:1004F000803309F469C084E026C0809105029091A0
:100500000602A0910702B0910802892B8A2B8B2B3F
:1005100009F484CF0E94F4008090050290900602B6
:10052000A0900702B09008026C197D098E099F09FE
:1005300086169706A806B90608F070CF80910402C7
:100540000E94D50185E010920A0210922C021092AE
:100550000902DF91CF911F910F91FF90EF90DF90F3
:10056000CF90BF90AF909F908F9008959D91919361
:100570008F5F69CF85EEA5CF80910502909106022D
:10058000A0910702B0910802892B8A2B8B2B09F4CA
:100590009ECF0E94F4000091050210910602209166
:1005A0000702309108026C197D098E099F09061710
:1005B00017072807390708F08ACFC0CF81E0C3CFDB
:1005C00080E0C1CF82E0BFCF83E0BDCFCF93DF9388
:1005D000EC018B818823A1F0888191E0909309023E
:1005E00080932B0210920A0210922C0281E00E944A
:1005F000F60191E0811190E0892FDF91CF9108956C
:100600000E94BE0181E08B83CE010E94E602982FFA
:100610008111E2CFF1CF0895E091DC018091DB01FF
:10062000E81730F4F0E0E455FE4F808190E0089543
:100630008FEF9FEF08959091DC018091DB012FEF08
:100640003FEF981748F4E92FF0E0E455FE4F208182
:1006500030E09F5F9093DC01C90108958091DB0138
:100660009091DC01891B990B0895CF92DF92EF9254
:10067000FF920F931F93CF93DF937C01CB018A01ED
:1006800020910902222389F0EB016B01C40ED51ED3
:10069000CC15DD0569F06991D701ED91FC910190D0
:1006A000F081E02DC7010995F3CF642F0E947901F5
:1006B000C801DF91CF911F910F91FF90EF90DF90D4
:1006C000CF900895CF93DF931F92CDB7DEB76983A4
:1006D000209109022223F9F020912C02203258F0B7
:1006E00021E030E0FC013383228390E080E00F9032
:1006F000DF91CF91089580910A02E82FF0E0E55F45
:10070000FD4F998190838F5F80930A0280932C0222
:1007100081E090E0ECCF61E0CE0101960E9479018A
:10072000F7CF90E080E008958F929F92AF92BF92B2
:100730000F931F93CF93DF93CDB7DEB7A1970FB67B
:10074000F894DEBF0FBECDBF19A2423008F44AE0D4
:100750008E010F5D1F4F842E912CB12CA12CA50171
:1007600094010E947F09E62FB901CA01EA3044F5DD
:10077000E05DD801EE938D01232B242B252B79F7F7
:1007800090E080E0109769F0FD0101900020E9F70A
:100790003197AF014A1B5B0BBD0189E392E00E94D8
:1007A0004B01A1960FB6F894DEBF0FBECDBFDF910F
:1007B000CF911F910F91BF90AF909F908F90089510
:1007C000E95CD7CFFC0101900020E9F73197AF0138
:1007D000481B590BBC0189E392E00C944B01CF9369
:1007E000DF93EC0160E08E810E94A80061E08E81C1
:1007F0000E94A80060E08E810E94A8008BE891E032
:100800000197F1F7DF91CF910895CF92DF92EF92A8
:10081000FF920F931F93CF93DF936C017C0187E0CE
:10082000E80EF11CD0E0C0E0062F10E0B8010C2E5D
:1008300002C0759567950A94E2F76170F70181919E
:100840007F010E94A8002196C430D10579F7C60126
:10085000DF91CF911F910F91FF90EF90DF90CF909C
:100860000C94EF03CF92DF92EF92FF920F931F93BE
:10087000CF93DF93EC01F62E642F8C810E94A800A9
:100880008D818F3F19F060E00E94A8000F2D10E0CD
:100890008F8584FF25C06E0187E0C80ED11CF12C26
:1008A000E12CB8010E2C02C0759567950A94E2F709
:1008B0006170F60181916F010E94A800FFEFEF1AAD
:1008C000FF0A88E0E816F10461F7CE01DF91CF91CD
:1008D0001F910F91FF90EF90DF90CF900C94EF035A
:1008E000B80184E0759567958A95E1F7CE010E947D
:1008F00005046F2DCE01DF91CF911F910F91FF90D5
:10090000EF90DF90CF900C94050440E0682F89E3CE
:1009100092E00C943204CF93DF93823029F49091CB
:10092000480298609093480280934C0210924D02C6
:1009300080E480934E0280E180934F0280E58093B3
:10094000500280913D020E94870080913E028F3FBD
:1009500011F00E94870080913F020E948700C9E346
:10096000D2E09E01295332408091480284FD0AC0A2
:1009700084E090E02196281739073CF48E810E948C
:100980008700EFCF88E090E0F5CF8BE39DE0019703
:10099000F1F760E080913D020E94A80060E0809144
:1009A0003F020E94A80080913E028F3F19F060E054
:1009B0000E94A8008091480284FD39C063E089E369
:1009C00092E00E940504CBE4D6E4CE010197F1F752
:1009D00063E089E392E00E9405042197F1F763E068
:1009E00089E392E00E94050483E592E00197F1F724
:1009F00062E089E392E00E940504809148028062EF
:100A00000E94850484E0809349028CE00E94850462
:100A100081E00E9485048BE39FE10197F1F782E07A
:100A200080934A0286E0DF91CF910C948504806226
:100A30000E9485048BE496E40197F1F780914802C7
:100A400080620E94850483E592E00197F1F780912E
:100A5000480280620E948504D0CF90914C02891791
:100A600010F08FEF890FE82FF0E0E75CFD4F8489ED
:100A700080680C94850441E00E94320481E090E09B
:100A80000895CF92DF92EF92FF926C01990FEE08DA
:100A9000FF08F7FE16C041E06DE289E392E00E9494
:100AA000320466277727CB016C197D098E099F09CF
:100AB0004AE00E9494030196FF90EF90DF90CF9060
:100AC00008954AE0C701B601FF90EF90DF90CF9004
:100AD0000C94940385ED8093BC0080910502909165
:100AE0000602A0910702B09108020796A11DB11D50
:100AF00023E0B695A795979587952A95D1F72091EC
:100B0000BC0024FD03C01092030208954091050229
:100B1000509106026091070270910802452B462B06
:100B2000472B69F30097A105B10541F02AE22A9508
:100B3000F1F700C00197A109B109E1CF809104024A
:100B40000C94D5011F920F920FB60F9211242F9380
:100B50003F938F939F93AF93BF938091CF019091D9
:100B6000D001A091D101B091D2013091CE0123E00A
:100B7000230F2D3758F50196A11DB11D2093CE01ED
:100B80008093CF019093D001A093D101B093D20173
:100B90008091D3019091D401A091D501B091D6015B
:100BA0000196A11DB11D8093D3019093D401A09310
:100BB000D501B093D601BF91AF919F918F913F9195
:100BC0002F910F900FBE0F901F90189526E8230FBE
:100BD0000296A11DB11DD2CF1F920F920FB60F9298
:100BE00011242F933F934F935F936F937F938F9332
:100BF0009F93AF93BF93EF93FF938091B900887F4A
:100C0000803609F44AC0F0F5883209F4A7C018F517
:100C1000803109F49BC0B8F4882309F4F9C0883006
:100C200009F494C0FF91EF91BF91AF919F918F9183
:100C30007F916F915F914F913F912F910F900FBED8
:100C40000F901F901895883109F488C0803251F7B1
:100C50008093010214C0803409F49DC040F48033B5
:100C6000B9F38833F9F68093010285ECB0C0803582
:100C700009F485C0883509F496C0883499F60E9435
:100C80006A05D0CF883909F48CC038F5883729F047
:100C900050F4883611F0803729F683E08093030200
:100CA0001092AB0157C0883809F47BC0803919F025
:100CB000803809F0B7CF8091AB01803208F071C065
:100CC000E091AB0181E08E0F8093AB018091BB007E
:100CD000F0E0E557FE4F80833DC0803B39F0E0F403
:100CE000803A09F479C0883A09F09CCF84E0809377
:100CF000030210928A0110928901E091D901F091CA
:100D0000DA0109958091890181110FC081E08093FA
:100D100089011092690109C0803C09F4A6CF883C82
:100D200009F4A3CF883B09F07DCFE0918A0181E0EF
:100D30008E0F80938A01F0E0E759FE4F8081809307
:100D4000BB0090918A018091890129C08091DE01C8
:100D50008093BB0085EC8093BC0064CF909100022F
:100D60008091FF01981758F5E091000281E08E0F05
:100D700080930002F0E0E152FE4F8081E9CFE091E4
:100D8000000281E08E0F809300028091BB00F0E0B2
:100D9000E152FE4F8083909100028091FF019817ED
:100DA000C8F285E8D8CFE091000281E08E0F8093F1
:100DB00000028091BB00F0E0E152FE4F8083809101
:100DC000020281115CCF81E08093DD0184EA80938F
:100DD000BC001092030226CF85EC8093BC001092D9
:100DE00003028091AB01803230F4E091AB01F0E07E
:100DF000E557FE4F10826091AB0170E0E091D701A2
:100E0000F091D8018BE891E009951092AB010ACFDF
:100E10001092010234CFEDE2F2E01382128288EEEA
:100E200093E0A0E0B0E084839583A683B7838AE053
:100E300091E091838083E9E3F2E0138212828CE1F6
:100E400091E0918380838CE084838FEF85838BE0B6
:100E5000868385E0878384E0808783E0818782E0E2
:100E600082871386148615861686178681E00C9471
:100E70008B04CF93DF9300D000D000D01F92CDB76A
:100E8000DEB7789484B5826084BD84B5816084BD0A
:100E900085B5826085BD85B5816085BD80916E0018
:100EA000816080936E001092810080918100826049
:100EB0008093810080918100816080938100809186
:100EC00080008160809380008091B1008460809375
:100ED000B1008091B00081608093B00080917A0071
:100EE000846080937A0080917A00826080937A0097
:100EF00080917A00816080937A0080917A00806886
:100F000080937A001092C1000E94BE018091CC01B2
:100F10009091CD01009711F00E94430A86E090E085
:100F20000E94A7098C0188E6D8018C938DE292E09B
:100F300012969C938E93119713961C92139780E2AE
:100F400090E015969C938E9314971093CD01009387
:100F5000CC010E94BE0181E0F8018383C8010E9498
:100F6000E60282E00E948B0488E00E94870084E20F
:100F700091E00E94E20360ED77E080E090E00E9463
:100F8000190181E00E9485048BE39FE10197F1F74D
:100F900077E0872E912C22242A94332433941982CB
:100FA000C090CC01D090CD01D60114968D919C912A
:100FB0001597892B09F421C111968D919C91129757
:100FC0002C913092090220932B0210920A02109267
:100FD0002C02DC01ED91FC910280F381E02D41E0D7
:100FE00050E0BE016F5F7F4F0995019709F005C181
:100FF00080E00E94F601811100C1F12CE12CF60184
:101000008481958184010E191F098017910708F4C6
:101010008C01D601AC900E94F4002B013C01809120
:101020000302811172C0B02EB0E2B01710F460E27A
:10103000B62E3092030221E0C401801B910BE8160A
:10104000F90608F420E02093020220920102109297
:1010500000028FEF8B0D8093FF013092DE018091B3
:10106000DE01AA0CA82AA092DE018091DD01813068
:1010700009F096C01092DD010E94F4002B013C01A2
:101080008091DE018093BB00809105029091060261
:10109000A0910702B0910802892B8A2B8B2BA1F01B
:1010A0000E94F4002091050230910602409107024F
:1010B00050910802641975098609970926173707A0
:1010C0004807590708F442C08091BC0083FDD8CF7F
:1010D000E5ECE093BC000E94F4002B013C01809100
:1010E0000302813009F460C0809100028B1510F476
:1010F000B0900002AFEDB1E0ECEAF1E080E08B15DA
:1011000051F19D9191938F5FFACF8091050290915B
:101110000602A0910702B0910802892B8A2B8B2B23
:1011200009F47DCF0E94F40020910502309106025F
:1011300040910702509108026419750986099709C0
:10114000261737074807590708F069CF809104022E
:101150000E94D501B12C1092DC01B092DB01B016D7
:10116000110609F04AC0AA24A394B12CAC0EBD1EEE
:10117000AE0CBF1C3501C501861997098017910770
:10118000A8F5D60111968D919C91DC01ED91FC9111
:101190000284F385E02D0995F50181935F01EBCF82
:1011A000F5EEF093BC0097CF809105029091060276
:1011B000A0910702B0910802892B8A2B8B2B09F48E
:1011C0008ECF0E94F40020910502309106024091DA
:1011D00007025091080264197509860997092617B4
:1011E00037074807590708F07ACFB0CFE00EF11E55
:1011F000F7E0EF16F10408F402CF2A81822F90E085
:1012000034E0959587953A95E1F7982F990F990FC6
:10121000082F091B000F020F2B81822F90E044E062
:10122000959587954A95E1F7982F990F990F182F63
:10123000191B110F120F80E00E942D0582E391E02F
:101240000E94E203612F70E090E080E04AE00E949B
:1012500094038AE391E00E94E2030A3020F48CE3D5
:1012600091E00E94E203602F70E090E080E04AE0AD
:101270000E94940381E011112BC0011129C00E942A
:101280002D058EE391E00E94E20361E088E00E9478
:10129000A80068E873E180E090E00E94190160E036
:1012A00088E00E94A80081E00E942D058EE491E074
:1012B0000E94E20368EE73E080E090E00E94190172
:1012C00080E090E0892B09F46ACE0E94000065CE90
:1012D0000E942D058FE591E00E94E20390E080E0FE
:1012E0000E9441058AE391E00E94E2038CE391E0D1
:1012F0000E94E20390E080E00E944105DBCFA1E282
:101300001A2EAA1BBB1BFD010DC0AA1FBB1FEE1F7F
:10131000FF1FA217B307E407F50720F0A21BB30BCA
:10132000E40BF50B661F771F881F991F1A9469F746
:1013300060957095809590959B01AC01BD01CF01A2
:101340000895EE0FFF1F0590F491E02D09940F937F
:101350001F93CF93DF938230910510F482E090E0E9
:10136000E0915302F091540230E020E0B0E0A0E0C0
:10137000309799F42115310509F44AC0281B390B1F
:1013800024303105D8F58A819B816115710589F179
:10139000FB0193838283FE0111C040815181028150
:1013A000138148175907E0F04817590799F4109727
:1013B00061F012960C93129713961C933296CF01FC
:1013C000DF91CF911F910F910895009353021093D5
:1013D0005402F4CF2115310551F04217530738F06C
:1013E000A901DB019A01BD01DF01F801C1CFEF01C5
:1013F000F9CF9093540280935302CDCFFE01E20FB8
:10140000F31F819391932250310939832883D7CFD9
:101410002091510230915202232B41F4209102017C
:101420003091030130935202209351022091000128
:10143000309101012115310541F42DB73EB740919E
:10144000040150910501241B350BE0915102F091EC
:101450005202E217F307A0F42E1B3F0B281739079F
:1014600078F0AC014E5F5F4F2417350748F04E0F00
:101470005F1F5093520240935102819391939FCFEB
:10148000F0E0E0E09CCFCF93DF930097E9F0FC0120
:10149000329713821282A0915302B0915402ED014F
:1014A00030E020E01097A1F420813181820F931F5A
:1014B00020915102309152022817390709F061C07A
:1014C000F0935202E0935102DF91CF910895EA0127
:1014D000CE17DF07E8F54A815B819E014115510572
:1014E000B1F7E901FB83EA8349915991C40FD51FF4
:1014F000EC17FD0761F4808191810296840F951F9E
:10150000E90199838883828193819B838A83F0E0B8
:10151000E0E012968D919C9113970097B9F52D916B
:101520003C911197CD010296820F931F2091510299
:10153000309152022817390739F6309751F5109239
:10154000540210925302B0935202A0935102BCCFA6
:10155000D383C28340815181840F951FC817D90757
:1015600061F44E5F5F4F88819981480F591F518305
:1015700040838A819B81938382832115310509F001
:10158000B0CFF0935402E09353029ECFFD01DC01F3
:0C159000C0CF13821282D7CFF894FFCF97
:10159C000000550280000000000062033503910337
:1015AC000B032E031B030C03000000003B054B0137
:1015BC0091037801416C61726D20536961702E2E1C
:1015CC002E0057616B74753A20003A003000414C84
:1015DC0041524D2042455242554E5949210020203E
:1015EC0020202020202020202020202020200041EE
:0815FC006C61726D3A200000E1
:00000001FF
